:1000000045C0000060C000005EC000005CC0000091
:100010005AC0000058C0000056C0000054C0000084
:1000200052C00000AAC200004EC000004CC0000038
:100030004AC0000048C0000046C0000044C00000A4
:1000400073C2000040C000003EC000003CC0000081
:100050003AC0000038C0000036C0000034C00000C4
:1000600032C0000030C000002EC000002CC00000D4
:100070002AC0000028C0000026C0000024C00000E4
:1000800022C0000020C000001EC0000011241FBEBE
:10009000CFEFD0E1DEBFCDBF11E0A0E0B1E0E2EBF9
:1000A000F6E000E00BBF02C007900D92AA30B10746
:1000B000D9F721E0AAE0B1E001C01D92AF31B2074B
:1000C000E1F782D2F4C29CCF80911801813009F00F
:1000D00047C040910D0150910E014F5F5F4F9A0153
:1000E000369527953695279536952795A5ECB0E258
:1000F000BBD2929582958F7089279F70892768EE71
:1001000073E0869F9001879F300D969F300D1124DC
:10011000CA01821B930B90930E0180930D01892BD2
:10012000F9F48091170190E001966CE370E089D2B8
:1001300080931701811114C08091160190E00196FF
:100140006CE370E07ED280931601811109C080912A
:10015000150190E0019668E170E073D2809315017B
:1001600008951092180110920E0110920D01109234
:100170001701109216011092150120E049E350E09A
:100180006AE370E089E191E093D021E049E350E037
:100190006AE370E08FE091E08BD0C1D03DD245C2E0
:1001A0000895809118018130A9F018F08230D1F0C3
:1001B000089589E191E089D0823021F481E0809333
:1001C000180108958FE091E080D0823069F4809327
:1001D0001801089589E191E078D0823029F41092D5
:1001E0001801089510921801089580911801823025
:1001F00051F410920E0110920D01109217011092FD
:10020000160110921501909116018DEC989F812D89
:100210001124869586958695880F282F220F220F08
:10022000820F981B28EE33E0929FB001939F700DD0
:1002300011242091170130E0A901440F551F220F0E
:10024000331F220F331F220F331F240F351FAB0123
:10025000420F531F20910D0130910E0136952795C5
:1002600036952795ABE7B4E1FFD1FC01F695E7950C
:100270009F01ADECBCECF8D1969587959695879546
:10028000969587959C01220F331F880F991F880F21
:10029000991F880F991F820F931F9F01281B390BED
:1002A000C901840F951F35C108957BDF9ECF089546
:1002B000FC01CB017183608353834283248331E04B
:1002C000358340E0622F84C10895CF93DF93EC0122
:1002D0006C818A819B8196D1982F81110BC08D8171
:1002E000813041F4EFE3FCE93197F1F700C0000001
:1002F0001D8212C0992369F08D8181110CC08FE39A
:100300009CE90197F1F700C0000081E08D8382E055
:1003100003C080E001C080E0DF91CF91089582B1F9
:10032000806F82B98FEF809361000895CF93DF9340
:10033000CDB7DEB72A970FB6F894DEBF0FBECDBF9C
:10034000AC018AE0E0E0F1E0DE01119601900D924F
:100350008A95E1F780910A0190E001968370907888
:10036000992324F401978C6F9F6F019680930A0163
:1003700083B1806F83B980910A01813009F43EC056
:1003800038F0823009F46AC0833009F495C0B8C0EF
:100390009A01369527953695279536952795A5EC9C
:1003A000B0E262D1AC01529542954F7045275F7023
:1003B00045279A01ADECBCEC57D19695879596955B
:1003C0008795969587959C01220F331F880F991F5B
:1003D000880F991F880F991F820F931F9A01281B5E
:1003E000390BE1E0F0E0EC0FFD1FE20FF31F80811D
:1003F0008093620083B18F7E83B982C09A01369563
:10040000279536952795ABE7B4E12ED1AC015695EB
:1004100047959A01ADECBCEC27D1969587959695BA
:100420008795969587959C01220F331F880F991FFA
:10043000880F991F880F991F820F931F9A01281BFD
:10044000390BE1E0F0E0EC0FFD1FE20FF31F8081BC
:100450008093620083B18F7D83B952C09A01ADEC65
:10046000BCEC02D1AC0156954795569547955695EB
:1004700047959A01F9D09695879596958795969583
:1004800087959C01220F331F880F991F880F991F92
:10049000880F991F820F931F9A01281B390BE1E0E7
:1004A000F0E0EC0FFD1FE20FF31F808180936200EC
:1004B00083B18F7B83B924C09A01ADECBCECD4D05E
:1004C0009695879596958795969587959C01220F89
:1004D000331F880F991F880F991F880F991F820F4C
:1004E000931F9A01281B390BE1E0F0E0EC0FFD1F90
:1004F000E20FF31F80818093620083B18F7783B90D
:100500002A960FB6F894DEBF0FBECDBFDF91CF9114
:10051000089590930C0180930B01089580910B0135
:1005200090910C0103CF08951F920F920FB60F9276
:1005300011240BB60F922F933F934F935F936F93BA
:100540007F938F939F93AF93BF93EF93FF93E6DFD8
:1005500082E882BFFF91EF91BF91AF919F918F9100
:100560007F916F915F914F913F912F910F900BBEB3
:100570000F900FBE0F901F9018951F920F920FB6FD
:100580000F9211240BB60F922F933F934F935F93CB
:100590006F937F938F939F93AF93BF93EF93FF934B
:1005A00093DDFF91EF91BF91AF919F918F917F91DB
:1005B0006F915F914F913F912F910F900BBE0F90D4
:1005C0000FBE0F901F901895CCDD78946EDEFECF95
:1005D000FC01413059F4208181E090E002C0880F95
:1005E000991F6A95E2F7822B80830895908121E01C
:1005F00030E002C0220F331F6A95E2F720952923CD
:1006000020830895FC01808190E002C09595879534
:100610006A95E2F78170089583B7856083BF87B7D5
:10062000816087BF82E882BF089585B5836085BDFC
:1006300085B5886085BD87B7806887BF89EF83BD32
:10064000089597FB072E16F4009406D077FD08D086
:100650001AD007FC05D03EF4909581959F4F0895E0
:10066000709561957F4F0895A29FB001B39FC0011F
:10067000A39F700D811D1124911DB29F700D811DCE
:100680001124911D0895AA1BBB1B51E107C0AA1F8D
:10069000BB1FA617B70710F0A61BB70B881F991F23
:1006A0005A95A9F780959095BC01CD010895F894CD
:0206B000FFCF7A
:0A06B2003F065B4F666D7D077F6712
:00000001FF
